:1000000071C000008EC000008CC000008AC00000DB
:1000100088C0000086C0000084C0000082C00000CC
:1000200080C000007EC000007CC000007AC00000DC
:1000300078C0000076C0000074C0000072C00000EC
:1000400070C000006EC000006CC000006AC00000FC
:1000500068C0000066C0000064C0000062C000000C
:1000600060C000005EC000005CC000005AC000001C
:1000700058C0000056C0000054C0000052C000002C
:1000800050C000004EC000004CC000004AC000003C
:1000900048C0000046C0000044C0000042C000004C
:1000A00040C000003EC000003CC000003AC000005C
:1000B00038C0000036C0000034C0000032C000006C
:1000C00030C000002EC000002CC000002AC000007C
:1000D00028C0000026C0000024C0000022C000008C
:1000E00020C0000011241FBECFEFD1E2DEBFCDBF84
:1000F00000E00CBF12E0A0E0B2E0ECEBF3E000E0C7
:100100000BBF02C007900D92AA31B107D9F722E0C8
:10011000AAE1B2E001C01D92AE31B207E1F7ACD066
:100120004BC16ECF0F931F9300911A0210911B02C7
:1001300020911C0230911D02012B022B032BC9F0D0
:1001400013C0FF920F931F93CF93DF93C0911A02B6
:10015000CF93C0911B02CF93C0911C02CF93FB01A0
:10016000CC01242FF8940895ECDF789407B600FCB6
:10017000FDCF1F910F910895CF92DF92EF92FF92E2
:100180001F93CF93DF936B017C01D42F152F43E096
:10019000C9DFC0E86C2F6195660F0F921F92862F02
:1001A0008695ED2FF12FE80FF11DE80FF11D8081ED
:1001B00091810C0170E080E090E041E0B3DF1F909E
:1001C0000F90C15039F745E0C701B601DF91CF91DB
:1001D0001F91FF90EF90DF90CF90A4CF611520EE9C
:1001E000720723E08207910508F0C6CF0895CF93E8
:1001F000DF939B0160931A0230931B0280931C02D1
:1002000090931D02AB01BC014E5F5F4F6F4F7F4F5C
:100210004115510524E06207710551F410921A024C
:1002200010921B0210921C0210921D0280E021C04D
:10023000DB01CA01C4E0D2E0ABBFFC0127913691DB
:10024000E991F9912E173F07F9F60296A11DB11D0C
:1002500022E0CA31D20781F7769567955795479581
:1002600040931A0250931B0260931C0270931D026C
:1002700081E0DF91CF910895CF93DF93CDB7DEB7C3
:10028000DA950FB6F894DEBF0FBECDBF8091C000E7
:1002900082608093C00088E18093C10080E18093F8
:1002A000C4001092C500279A00E010E0C12CD12CA8
:1002B000760122E0822E20EF922EAA24A394B12C64
:1002C0008091C00087FFFCCF7090C600013651F4CA
:1002D000CD2CDE2CEF2CFF24F7281F5F143009F003
:1002E00054C052C0073789F4E1E0F0E0EC0FFD1F85
:1002F000E10FF11D70821F5F09F047C0AE014F5F33
:100300005F4FC701B6016ADF3FC0023761F4D70112
:10031000C601810F911DA11DB11DABBFFC017790DE
:100320001F5F91F132C00D3661F5111121C020E33C
:10033000721215C060E070EE83E090E058DF882311
:10034000E1F080911A0290911B02A0911C02B091E1
:100350001D028230904FA140B105F1F40EC081E33F
:1003600078120BC060E071EE83E090E040DF05C0E2
:10037000E12FF0E0E75EFD4F70801F5F153029F43C
:1003800003C0072D10E001C000E07092C60080910C
:10039000C00085FFFCCF94CF40E052E060E070EEFB
:1003A00083E090E0E9DE80921A0290921B02A09214
:0C03B0001C02B0921D02E1CFF894FFCFB8
:1003BC000C94000080935B0020935700E895DF912C
:0A03CC00CF911F910F91FF9008954B
:00000001FF
