:1000000071C000008EC000008CC000008AC00000DB
:1000100088C0000086C0000084C0000082C00000CC
:1000200080C000007EC000007CC000007AC00000DC
:1000300078C0000076C0000074C0000072C00000EC
:1000400070C000006EC000006CC000006AC00000FC
:1000500068C0000066C0000064C0000062C000000C
:1000600060C000005EC000005CC000005AC000001C
:1000700058C0000056C0000054C0000052C000002C
:1000800050C000004EC000004CC000004AC000003C
:1000900048C0000046C0000044C0000042C000004C
:1000A00040C000003EC000003CC000003AC000005C
:1000B00038C0000036C0000034C0000032C000006C
:1000C00030C000002EC000002CC000002AC000007C
:1000D00028C0000026C0000024C0000022C000008C
:1000E00020C0000011241FBECFEFD1E2DEBFCDBF84
:1000F00000E00CBF16E0A0E0B2E0E6E3F4E000E0D0
:100100000BBF02C007900D92AE3CB107D9F726E0B5
:10011000AEECB6E001C01D92A23DB207E1F725D1D9
:1001200088C16ECFFC012191CF01222339F02093A9
:10013000C6002091C00025FFFCCFF4CF0895CF92D8
:10014000DF92EF92FF920F931F93CF93DF93CDB780
:10015000DEB764970FB6F894DEBF0FBECDBF6A015D
:1001600020E1AE014F5F5F4F7A0124D1F70101908A
:100170000020E9F78F01015011090E191F0980E0D5
:1001800092E0D0DF0C151D0529F00F5F1F4F84E0B2
:1001900092E0F7CFC701C6DF86E092E0C3DF649646
:1001A0000FB6F894DEBF0FBECDBFDF91CF911F9188
:1001B0000F91FF90EF90DF90CF9008958F929F92D4
:1001C000AF92BF92DF92EF92FF920F931F93CF9364
:1001D000DF934B015C01D42E8091CE069091CF0627
:1001E000A091D006B091D106892B8A2B8B2B09F0D8
:1001F00055C088E092E096DF80E090EEA3E0B0E0AA
:100200008093CE069093CF06A093D006B093D106EC
:100210000296A11DB11D009724E0A207B10561F46B
:100220008093CE069093CF06A093D006B093D106CC
:100230008DE292E077DFFFCF8C019D01C8EBD2E029
:100240002BBFF801E790F69049915991E416F50615
:10025000F9F60E5F1F4F2F4F3F4F42E0CE3CD407C1
:1002600079F7B695A795979587958093CE06909345
:10027000CF06A093D006B093D10685E592E052DF79
:100280006091CE067091CF068091D0069091D106F4
:1002900046E050E054DF8BE292E044DF13C0FF926F
:1002A0000F931F93CF93DF93C091CE06CF93C0914E
:1002B000CF06CF93C091D006CF93F401C5012D2D69
:1002C000F8940895ECDF789407B600FCFDCFDF9139
:1002D000CF911F910F91FF90EF90DF90BF90AF9063
:1002E0009F908F900895CF92DF92EF92FF921F938D
:1002F000CF93DF936B017C01142FD52F86E792E01B
:1003000011DF46E050E0C701B60119DF88E292E054
:1003100009DF43E0C701B60151DFC0E86C2F6195EA
:10032000660F0F921F92862F8695E12FFD2FE80F03
:10033000F11DE80FF11D808191810C0170E080E0DA
:1003400090E041E03BDF1F900F90C15039F745E04E
:10035000C701B60133DF84E892E0DF91CF911F91AE
:10036000FF90EF90DF90CF90DDCE8091C000826053
:100370008093C00088E18093C10080E18093C40035
:100380001092C50087E992E0CDDE4EEC54E060E0CB
:1003900070EE83E090E0A7DF4EEC52E060E071EE9B
:1003A00083E090E0A0DF8FEA92E0BCDEF8940D9449
:1003B00001F0FFCFBB272A3051F4992342F4BDE26C
:1003C00090958095709561957F4F8F4F9F4F01C09D
:1003D000BB27FA01A62F6217710581059105330B22
:1003E00030FB66F0AA27660F771F881F991FAA1F88
:1003F000A21710F0A21B63953850A9F7A05DAA338D
:1004000008F0A95DA19336F7B111B1931082CA012A
:1004100000C0DC01FC01672F71917723E1F732976F
:1004200004C07C916D9370836291AE17BF07C8F3CF
:060430000895F894FFCFCF
:100436002830780030002900536561726368696E60
:10044600672053504D20626F6F746C6F61646572E4
:100456002073656374696F6E2E2E2E0A0053504DFD
:1004660020626F6F746C6F6164657220736563746C
:10047600696F6E206E6F7420666F756E640A4552E2
:10048600524F520A00466F756E642053504D2062DB
:100496006F6F746C6F616465722073656374696FE6
:1004A6006E206174200057726974696E67207061EE
:1004B6006765200046696E697368656420777269AE
:1004C60074696E672E0A00426567696E205365720D
:1004D60076696365205265636F766572790A0053A3
:1004E6005543434553530A0080935B0020935700BE
:1004F600E895DF91CF911F910F91FF9008951124F8
:10050600F894A89514BEE0E6F0E0808188618083C7
:100516001082E0ECF0E080818260808380E180934D
:10052600C40088E18093C1000D9401F00000000032
:1005360000000000000000000000000000000000B5
:1005460000000000000000000000000000000000A5
:100556000000000000000000000000000000000095
:100566000000000000000000000000000000000085
:100576000000000000000000000000000000000075
:100586000000000000000000000000000000000065
:100596000000000000000000000000000000000055
:1005A6000000000000000000000000000000000045
:1005B6000000000000000000000000000000000035
:1005C6000000000000000000000000000000000025
:1005D6000000000000000000000000000000000015
:1005E6000000000000000000000000000000000005
:1005F60000000000000000000000000000000000F5
:1006060000000000000000000000000000000000E4
:1006160000000000000000000000000000000000D4
:1006260000000000000000000000000000000000C4
:1006360000000000000000000000000000000000B4
:1006460000000000000000000000000000000000A4
:100656000000000000000000000000000000000094
:100666000000000000000000000000000000000084
:100676000000000000000000000000000000000074
:100686000000000000000000000000000000000064
:100696000000000000000000000000000000000054
:1006A6000000000000000000000000000000000044
:1006B6000000000000000000000000000000000034
:1006C6000000000000000000000000000000000024
:1006D6000000000000000000000000000000000014
:1006E6000000000000000000000000000000000004
:1006F60000000000000000000000000000007FC0B5
:10070600279AE12CC0E0D0E0F12C80E090E0DC01FB
:10071600DD24D39445E0C42E53E0B52E2091C000CD
:1007260027FFFCCF4091C60021E6E2120AC0892FBE
:100736009A2FAB2FBB27B42BF39424E0F2124EC0B2
:100746004CC027E7E21237C0CD2FDD27D42B8C0112
:100756009D01105E234031090F3F1105210531052A
:1007660009F008F434C0F11009C0FC01A0935B0045
:10077600B0925700E89507B600FCFDCFF0FE27C003
:100786008C019D010F0D111D211D311D0E01F8015A
:1007960020935B00D0925700E89511242FEFF212B8
:1007A60016C0FC01A0935B00C0925700E89507B6FF
:1007B60000FCFDCF0CC022E7E2120CC0AC01BD016B
:1007C6004F0D511D611D711D6BBFFA014791F394C9
:1007D60021F004C0E42EF12C01C0E12C4093C600A8
:1007E6002091C00025FFFCCF99CF0000000000003B
:1007F60000000000000000000000000000000000F3
:1008060000000000000000000000000000000000E2
:1008160000000000000000000000000000000000D2
:1008260000000000000000000000000000000000C2
:1008360000000000000000000000000000000000B2
:1008460000000000000000000000000000000000A2
:100856000000000000000000000000000000000092
:100866000000000000000000000000000000000082
:100876000000000000000000000000000000000072
:100886000000000000000000000000000000000062
:100896000000000000000000000000000000000052
:1008A6000000000000000000000000000000000042
:1008B6000000000000000000000000000000000032
:1008C6000000000000000000000000000000000022
:1008D6000000000000000000000000000000000012
:1008E6000000000000000000000000000000000002
:0E08F6000000000000000000000000000000F4
:00000001FF
